{"abi":[{"type":"constructor","inputs":[{"name":"vrfCoordinatorV2","type":"address","internalType":"address"},{"name":"subscriptionId","type":"uint64","internalType":"uint64"},{"name":"gasLane","type":"bytes32","internalType":"bytes32"},{"name":"callbackGasLimit","type":"uint32","internalType":"uint32"},{"name":"entranceFee","type":"uint256","internalType":"uint256"},{"name":"interval","type":"uint256","internalType":"uint256"}],"stateMutability":"nonpayable"},{"type":"function","name":"checkUpkeep","inputs":[{"name":"","type":"bytes","internalType":"bytes"}],"outputs":[{"name":"upkeepNeeded","type":"bool","internalType":"bool"},{"name":"","type":"bytes","internalType":"bytes"}],"stateMutability":"view"},{"type":"function","name":"enterLottery","inputs":[],"outputs":[],"stateMutability":"payable"},{"type":"function","name":"getEntranceFee","inputs":[],"outputs":[{"name":"","type":"uint256","internalType":"uint256"}],"stateMutability":"view"},{"type":"function","name":"getInterval","inputs":[],"outputs":[{"name":"","type":"uint256","internalType":"uint256"}],"stateMutability":"view"},{"type":"function","name":"getLatestTimeStamp","inputs":[],"outputs":[{"name":"","type":"uint256","internalType":"uint256"}],"stateMutability":"view"},{"type":"function","name":"getNumWords","inputs":[],"outputs":[{"name":"","type":"uint256","internalType":"uint256"}],"stateMutability":"pure"},{"type":"function","name":"getNumberOfPlayers","inputs":[],"outputs":[{"name":"","type":"uint256","internalType":"uint256"}],"stateMutability":"view"},{"type":"function","name":"getPlayer","inputs":[{"name":"index","type":"uint256","internalType":"uint256"}],"outputs":[{"name":"","type":"address","internalType":"address"}],"stateMutability":"view"},{"type":"function","name":"getRecentWinner","inputs":[],"outputs":[{"name":"","type":"address","internalType":"address"}],"stateMutability":"view"},{"type":"function","name":"performUpkeep","inputs":[{"name":"","type":"bytes","internalType":"bytes"}],"outputs":[],"stateMutability":"nonpayable"},{"type":"function","name":"rawFulfillRandomWords","inputs":[{"name":"requestId","type":"uint256","internalType":"uint256"},{"name":"randomWords","type":"uint256[]","internalType":"uint256[]"}],"outputs":[],"stateMutability":"nonpayable"},{"type":"event","name":"LotteryEnter","inputs":[{"name":"player","type":"address","indexed":true,"internalType":"address"}],"anonymous":false},{"type":"event","name":"RequestedLotteryWinner","inputs":[{"name":"requestId","type":"uint256","indexed":true,"internalType":"uint256"}],"anonymous":false},{"type":"event","name":"WinnerPicked","inputs":[{"name":"winner","type":"address","indexed":true,"internalType":"address"}],"anonymous":false},{"type":"error","name":"OnlyCoordinatorCanFulfill","inputs":[{"name":"have","type":"address","internalType":"address"},{"name":"want","type":"address","internalType":"address"}]}],"bytecode":{"object":"0x61016060405234801562000011575f80fd5b506040516200142438038062001424833981810160405281019062000037919062000254565b858073ffffffffffffffffffffffffffffffffffffffff1660808173ffffffffffffffffffffffffffffffffffffffff1681525050508573ffffffffffffffffffffffffffffffffffffffff1660a08173ffffffffffffffffffffffffffffffffffffffff16815250508467ffffffffffffffff1660c08167ffffffffffffffff16815250508360e081815250508263ffffffff166101008163ffffffff168152505081610120818152505080610140818152505042600181905550505050505050620002ec565b5f80fd5b5f73ffffffffffffffffffffffffffffffffffffffff82169050919050565b5f6200012e8262000103565b9050919050565b620001408162000122565b81146200014b575f80fd5b50565b5f815190506200015e8162000135565b92915050565b5f67ffffffffffffffff82169050919050565b620001828162000164565b81146200018d575f80fd5b50565b5f81519050620001a08162000177565b92915050565b5f819050919050565b620001ba81620001a6565b8114620001c5575f80fd5b50565b5f81519050620001d881620001af565b92915050565b5f63ffffffff82169050919050565b620001f881620001de565b811462000203575f80fd5b50565b5f815190506200021681620001ed565b92915050565b5f819050919050565b62000230816200021c565b81146200023b575f80fd5b50565b5f815190506200024e8162000225565b92915050565b5f805f805f8060c08789031215620002715762000270620000ff565b5b5f6200028089828a016200014e565b96505060206200029389828a0162000190565b9550506040620002a689828a01620001c8565b9450506060620002b989828a0162000206565b9350506080620002cc89828a016200023e565b92505060a0620002df89828a016200023e565b9150509295509295509295565b60805160a05160c05160e0516101005161012051610140516110d1620003535f395f81816104d2015261054901525f8181610271015261056f01525f6103e101525f61039d01525f6103be01525f61036101525f818161029701526102eb01526110d15ff3fe60806040526004361061009b575f3560e01c806353a2c19a1161006357806353a2c19a1461016d5780636e04ff0d1461019757806391ad27b4146101d4578063c1af5785146101fe578063e55ae4e814610208578063fd6673f5146102445761009b565b806309bc33a71461009f5780631fe543e3146100c9578063320229eb146100f15780634585e33b1461011b578063473f1ddc14610143575b5f80fd5b3480156100aa575f80fd5b506100b361026e565b6040516100c0919061097e565b60405180910390f35b3480156100d4575f80fd5b506100ef60048036038101906100ea9190610b22565b610295565b005b3480156100fc575f80fd5b50610105610355565b604051610112919061097e565b60405180910390f35b348015610126575f80fd5b50610141600480360381019061013c9190610bd5565b61035e565b005b34801561014e575f80fd5b50610157610496565b6040516101649190610c5f565b60405180910390f35b348015610178575f80fd5b506101816104be565b60405161018e919061097e565b60405180910390f35b3480156101a2575f80fd5b506101bd60048036038101906101b89190610bd5565b6104cc565b6040516101cb929190610d0c565b60405180910390f35b3480156101df575f80fd5b506101e8610546565b6040516101f5919061097e565b60405180910390f35b61020661056d565b005b348015610213575f80fd5b5061022e60048036038101906102299190610d3a565b610674565b60405161023b9190610c5f565b60405180910390f35b34801561024f575f80fd5b506102586106b7565b604051610265919061097e565b60405180910390f35b5f7f0000000000000000000000000000000000000000000000000000000000000000905090565b7f000000000000000000000000000000000000000000000000000000000000000073ffffffffffffffffffffffffffffffffffffffff163373ffffffffffffffffffffffffffffffffffffffff161461034757337f00000000000000000000000000000000000000000000000000000000000000006040517f1cf993f400000000000000000000000000000000000000000000000000000000815260040161033e929190610d65565b60405180910390fd5b61035182826106c2565b5050565b5f600154905090565b5f7f000000000000000000000000000000000000000000000000000000000000000073ffffffffffffffffffffffffffffffffffffffff16635d3b1d307f00000000000000000000000000000000000000000000000000000000000000007f000000000000000000000000000000000000000000000000000000000000000060037f000000000000000000000000000000000000000000000000000000000000000060016040518663ffffffff1660e01b8152600401610422959493929190610e00565b6020604051808303815f875af115801561043e573d5f803e3d5ffd5b505050506040513d601f19601f820116820180604052508101906104629190610e65565b9050807febf56642252004c18a776f30d528e7a0ce8c5db14b6596fb6550f630c8a24c6c60405160405180910390a2505050565b5f60025f9054906101000a900473ffffffffffffffffffffffffffffffffffffffff16905090565b5f600163ffffffff16905090565b5f60605f7f0000000000000000000000000000000000000000000000000000000000000000600154426104ff9190610ebd565b101590505f805f805490501190505f804711905082801561051d5750815b80156105265750805b94508460405180602001604052805f815250945094505050509250929050565b5f7f0000000000000000000000000000000000000000000000000000000000000000905090565b7f00000000000000000000000000000000000000000000000000000000000000003410156105d0576040517f08c379a00000000000000000000000000000000000000000000000000000000081526004016105c790610f4a565b60405180910390fd5b5f33908060018154018082558091505060019003905f5260205f20015f9091909190916101000a81548173ffffffffffffffffffffffffffffffffffffffff021916908373ffffffffffffffffffffffffffffffffffffffff1602179055503373ffffffffffffffffffffffffffffffffffffffff167f1d64fb5ba9f2548c5b98468d58f25b87b9e866afee0122e92d9fe722bf85076c60405160405180910390a2565b5f80828154811061068857610687610f68565b5b905f5260205f20015f9054906101000a900473ffffffffffffffffffffffffffffffffffffffff169050919050565b5f8080549050905090565b5f8080549050825f815181106106db576106da610f68565b5b60200260200101516106ed9190610fc2565b90505f80828154811061070357610702610f68565b5b905f5260205f20015f9054906101000a900473ffffffffffffffffffffffffffffffffffffffff1690508060025f6101000a81548173ffffffffffffffffffffffffffffffffffffffff021916908373ffffffffffffffffffffffffffffffffffffffff1602179055505f8173ffffffffffffffffffffffffffffffffffffffff16476040516107929061101f565b5f6040518083038185875af1925050503d805f81146107cc576040519150601f19603f3d011682016040523d82523d5f602084013e6107d1565b606091505b5050905080610815576040517f08c379a000000000000000000000000000000000000000000000000000000000815260040161080c9061107d565b60405180910390fd5b5f67ffffffffffffffff81111561082f5761082e6109e6565b5b60405190808252806020026020018201604052801561085d5781602001602082028036833780820191505090505b505f90805190602001906108729291906108c4565b50426001819055508173ffffffffffffffffffffffffffffffffffffffff167f5b690ec4a06fe979403046eaeea5b3ce38524683c3001f662c8b5a829632f7df60405160405180910390a25050505050565b828054828255905f5260205f2090810192821561093a579160200282015b82811115610939578251825f6101000a81548173ffffffffffffffffffffffffffffffffffffffff021916908373ffffffffffffffffffffffffffffffffffffffff160217905550916020019190600101906108e2565b5b509050610947919061094b565b5090565b5b80821115610962575f815f90555060010161094c565b5090565b5f819050919050565b61097881610966565b82525050565b5f6020820190506109915f83018461096f565b92915050565b5f604051905090565b5f80fd5b5f80fd5b6109b181610966565b81146109bb575f80fd5b50565b5f813590506109cc816109a8565b92915050565b5f80fd5b5f601f19601f8301169050919050565b7f4e487b71000000000000000000000000000000000000000000000000000000005f52604160045260245ffd5b610a1c826109d6565b810181811067ffffffffffffffff82111715610a3b57610a3a6109e6565b5b80604052505050565b5f610a4d610997565b9050610a598282610a13565b919050565b5f67ffffffffffffffff821115610a7857610a776109e6565b5b602082029050602081019050919050565b5f80fd5b5f610a9f610a9a84610a5e565b610a44565b90508083825260208201905060208402830185811115610ac257610ac1610a89565b5b835b81811015610aeb5780610ad788826109be565b845260208401935050602081019050610ac4565b5050509392505050565b5f82601f830112610b0957610b086109d2565b5b8135610b19848260208601610a8d565b91505092915050565b5f8060408385031215610b3857610b376109a0565b5b5f610b45858286016109be565b925050602083013567ffffffffffffffff811115610b6657610b656109a4565b5b610b7285828601610af5565b9150509250929050565b5f80fd5b5f8083601f840112610b9557610b946109d2565b5b8235905067ffffffffffffffff811115610bb257610bb1610b7c565b5b602083019150836001820283011115610bce57610bcd610a89565b5b9250929050565b5f8060208385031215610beb57610bea6109a0565b5b5f83013567ffffffffffffffff811115610c0857610c076109a4565b5b610c1485828601610b80565b92509250509250929050565b5f73ffffffffffffffffffffffffffffffffffffffff82169050919050565b5f610c4982610c20565b9050919050565b610c5981610c3f565b82525050565b5f602082019050610c725f830184610c50565b92915050565b5f8115159050919050565b610c8c81610c78565b82525050565b5f81519050919050565b5f82825260208201905092915050565b5f5b83811015610cc9578082015181840152602081019050610cae565b5f8484015250505050565b5f610cde82610c92565b610ce88185610c9c565b9350610cf8818560208601610cac565b610d01816109d6565b840191505092915050565b5f604082019050610d1f5f830185610c83565b8181036020830152610d318184610cd4565b90509392505050565b5f60208284031215610d4f57610d4e6109a0565b5b5f610d5c848285016109be565b91505092915050565b5f604082019050610d785f830185610c50565b610d856020830184610c50565b9392505050565b5f819050919050565b610d9e81610d8c565b82525050565b5f67ffffffffffffffff82169050919050565b610dc081610da4565b82525050565b5f61ffff82169050919050565b610ddc81610dc6565b82525050565b5f63ffffffff82169050919050565b610dfa81610de2565b82525050565b5f60a082019050610e135f830188610d95565b610e206020830187610db7565b610e2d6040830186610dd3565b610e3a6060830185610df1565b610e476080830184610df1565b9695505050505050565b5f81519050610e5f816109a8565b92915050565b5f60208284031215610e7a57610e796109a0565b5b5f610e8784828501610e51565b91505092915050565b7f4e487b71000000000000000000000000000000000000000000000000000000005f52601160045260245ffd5b5f610ec782610966565b9150610ed283610966565b9250828203905081811115610eea57610ee9610e90565b5b92915050565b5f82825260208201905092915050565b7f4e6f7420656e6f7567682045544820746f20656e746572206c6f7474657279005f82015250565b5f610f34601f83610ef0565b9150610f3f82610f00565b602082019050919050565b5f6020820190508181035f830152610f6181610f28565b9050919050565b7f4e487b71000000000000000000000000000000000000000000000000000000005f52603260045260245ffd5b7f4e487b71000000000000000000000000000000000000000000000000000000005f52601260045260245ffd5b5f610fcc82610966565b9150610fd783610966565b925082610fe757610fe6610f95565b5b828206905092915050565b5f81905092915050565b50565b5f61100a5f83610ff2565b915061101582610ffc565b5f82019050919050565b5f61102982610fff565b9150819050919050565b7f5472616e73666572206661696c656400000000000000000000000000000000005f82015250565b5f611067600f83610ef0565b915061107282611033565b602082019050919050565b5f6020820190508181035f8301526110948161105b565b905091905056fea2646970667358221220f0b01112e3112b1c599f047cd61d6d899c4b9477130f74eed8122714456c920064736f6c63430008140033","linkReferences":{}},"methodIdentifiers":{"checkUpkeep(bytes)":"6e04ff0d","enterLottery()":"c1af5785","getEntranceFee()":"09bc33a7","getInterval()":"91ad27b4","getLatestTimeStamp()":"320229eb","getNumWords()":"53a2c19a","getNumberOfPlayers()":"fd6673f5","getPlayer(uint256)":"e55ae4e8","getRecentWinner()":"473f1ddc","performUpkeep(bytes)":"4585e33b","rawFulfillRandomWords(uint256,uint256[])":"1fe543e3"},"id":25}